:100000006F00000B1300000013000000130000003D
:100010001300000013000000130000001300000094
:10002000232E11FE232C51FE232A61FE232871FE6C
:100030002326A1FE2324B1FE2322C1FE2320D1FECC
:10004000232EE1FC232CF1FC232A01FD232811FDA2
:100050002326C1FD2324D1FD2322E1FD2320F1FD30
:10006000130101FCEF00400D8320C10383228103B3
:1000700003234103832301030325C1028325810256
:1000800003264102832601020327C1018327810140
:100090000328410183280101032EC100832E810022
:1000A000032F4100832F010013010104730020304E
:1000B0001301005613050016930500166308B500DA
:1000C00023200500130545006FF05FFF1305C015E1
:1000D0001301C1FF9305C015630EB500832605000B
:1000E000130545002320A100E78006000325010039
:1000F0006FF05FFE130141003715000013050588FE
:1001000073104530372500001305858073100530C6
:08011000EF00C0026F000000C7
:10011800930710012324F000930720022328F000FE
:1001280093073040232CF0002320000073001000B8
:0401380067800000DC
:10013C00930710012324F000930720022328F000DA
:10014C0093073040232CF000232000007300100094
:04015C00000000009F
:00000001FF
